{
  "address": "0xe7f1725E7734CE288F8367e1Bb143E90bb3F0512",
  "abi": [
    {
      "inputs": [
        {
          "internalType": "address",
          "name": "priceFeedAddress",
          "type": "address"
        }
      ],
      "stateMutability": "nonpayable",
      "type": "constructor"
    },
    {
      "inputs": [],
      "name": "FundMe__NotEnoughETH",
      "type": "error"
    },
    {
      "inputs": [],
      "name": "FundMe__NotOwner",
      "type": "error"
    },
    {
      "inputs": [],
      "name": "FundMe__WithdrawFailed",
      "type": "error"
    },
    {
      "stateMutability": "payable",
      "type": "fallback"
    },
    {
      "inputs": [],
      "name": "MIN_USD",
      "outputs": [
        {
          "internalType": "uint256",
          "name": "",
          "type": "uint256"
        }
      ],
      "stateMutability": "view",
      "type": "function"
    },
    {
      "inputs": [],
      "name": "fund",
      "outputs": [],
      "stateMutability": "payable",
      "type": "function"
    },
    {
      "inputs": [
        {
          "internalType": "address",
          "name": "funder_address",
          "type": "address"
        }
      ],
      "name": "getAddressToAmountFunded",
      "outputs": [
        {
          "internalType": "uint256",
          "name": "",
          "type": "uint256"
        }
      ],
      "stateMutability": "view",
      "type": "function"
    },
    {
      "inputs": [
        {
          "internalType": "uint256",
          "name": "index",
          "type": "uint256"
        }
      ],
      "name": "getFunders",
      "outputs": [
        {
          "internalType": "address",
          "name": "",
          "type": "address"
        }
      ],
      "stateMutability": "view",
      "type": "function"
    },
    {
      "inputs": [],
      "name": "getOwner",
      "outputs": [
        {
          "internalType": "address",
          "name": "",
          "type": "address"
        }
      ],
      "stateMutability": "view",
      "type": "function"
    },
    {
      "inputs": [],
      "name": "getPriceFeed",
      "outputs": [
        {
          "internalType": "contract AggregatorV3Interface",
          "name": "",
          "type": "address"
        }
      ],
      "stateMutability": "view",
      "type": "function"
    },
    {
      "inputs": [],
      "name": "withdraw",
      "outputs": [],
      "stateMutability": "payable",
      "type": "function"
    },
    {
      "stateMutability": "payable",
      "type": "receive"
    }
  ],
  "transactionHash": "0x690a72fd7693da24fcfd86a893c7790476ff7e0eca13921b521b45e207d842f8",
  "args": [
    "0x5FbDB2315678afecb367f032d93F642f64180aa3"
  ],
  "numDeployments": 1,
  "solcInputHash": "486f57ead7a21ffc8499af70790db3fc",
  "bytecode": "0x60a060405234801561001057600080fd5b50604051610e74380380610e7483398181016040528101906100329190610110565b3373ffffffffffffffffffffffffffffffffffffffff1660808173ffffffffffffffffffffffffffffffffffffffff168152505080600260006101000a81548173ffffffffffffffffffffffffffffffffffffffff021916908373ffffffffffffffffffffffffffffffffffffffff1602179055505061013d565b600080fd5b600073ffffffffffffffffffffffffffffffffffffffff82169050919050565b60006100dd826100b2565b9050919050565b6100ed816100d2565b81146100f857600080fd5b50565b60008151905061010a816100e4565b92915050565b600060208284031215610126576101256100ad565b5b6000610134848285016100fb565b91505092915050565b608051610d0e6101666000396000818161035b0152818161055101526106180152610d0e6000f3fe6080604052600436106100745760003560e01c80633ccfd60b1161004e5780633ccfd60b14610132578063893d20e81461013c5780639e87a5cd14610167578063b60d42881461019257610083565b80630343fb251461008d578063213dbea2146100ca5780633a7b6c74146100f557610083565b366100835761008161019c565b005b61008b61019c565b005b34801561009957600080fd5b506100b460048036038101906100af919061083d565b6102bc565b6040516100c19190610883565b60405180910390f35b3480156100d657600080fd5b506100df610305565b6040516100ec9190610883565b60405180910390f35b34801561010157600080fd5b5061011c600480360381019061011791906108ca565b610312565b6040516101299190610906565b60405180910390f35b61013a610359565b005b34801561014857600080fd5b50610151610614565b60405161015e9190610906565b60405180910390f35b34801561017357600080fd5b5061017c61063c565b6040516101899190610980565b60405180910390f35b61019a61019c565b005b6802b5e3af16b18800006101db600260009054906101000a900473ffffffffffffffffffffffffffffffffffffffff163461066690919063ffffffff16565b1015610213576040517fb514e4ed00000000000000000000000000000000000000000000000000000000815260040160405180910390fd5b6000339080600181540180825580915050600190039060005260206000200160009091909190916101000a81548173ffffffffffffffffffffffffffffffffffffffff021916908373ffffffffffffffffffffffffffffffffffffffff16021790555034600160003373ffffffffffffffffffffffffffffffffffffffff1673ffffffffffffffffffffffffffffffffffffffff16815260200190815260200160002081905550565b6000600160008373ffffffffffffffffffffffffffffffffffffffff1673ffffffffffffffffffffffffffffffffffffffff168152602001908152602001600020549050919050565b6802b5e3af16b188000081565b60008082815481106103275761032661099b565b5b9060005260206000200160009054906101000a900473ffffffffffffffffffffffffffffffffffffffff169050919050565b7f000000000000000000000000000000000000000000000000000000000000000073ffffffffffffffffffffffffffffffffffffffff163373ffffffffffffffffffffffffffffffffffffffff16146103de576040517f579610db00000000000000000000000000000000000000000000000000000000815260040160405180910390fd5b60008080548060200260200160405190810160405280929190818152602001828054801561046157602002820191906000526020600020905b8160009054906101000a900473ffffffffffffffffffffffffffffffffffffffff1673ffffffffffffffffffffffffffffffffffffffff1681526020019060010190808311610417575b5050505050905060005b81518110156104ec5760008282815181106104895761048861099b565b5b602002602001015190506000600160008373ffffffffffffffffffffffffffffffffffffffff1673ffffffffffffffffffffffffffffffffffffffff168152602001908152602001600020819055505080806104e4906109f9565b91505061046b565b50600067ffffffffffffffff81111561050857610507610a41565b5b6040519080825280602002602001820160405280156105365781602001602082028036833780820191505090505b506000908051906020019061054c929190610733565b5060007f000000000000000000000000000000000000000000000000000000000000000073ffffffffffffffffffffffffffffffffffffffff164760405161059390610aa1565b60006040518083038185875af1925050503d80600081146105d0576040519150601f19603f3d011682016040523d82523d6000602084013e6105d5565b606091505b5050905080610610576040517ff02e6d3000000000000000000000000000000000000000000000000000000000815260040160405180910390fd5b5050565b60007f0000000000000000000000000000000000000000000000000000000000000000905090565b6000600260009054906101000a900473ffffffffffffffffffffffffffffffffffffffff16905090565b600080610672836106a2565b90506000670de0b6b3a7640000858361068b9190610ab6565b6106959190610b27565b9050809250505092915050565b6000808273ffffffffffffffffffffffffffffffffffffffff1663feaf968c6040518163ffffffff1660e01b815260040160a060405180830381865afa1580156106f0573d6000803e3d6000fd5b505050506040513d601f19601f820116820180604052508101906107149190610be5565b5050509150506402540be4008161072b9190610c60565b915050919050565b8280548282559060005260206000209081019282156107ac579160200282015b828111156107ab5782518260006101000a81548173ffffffffffffffffffffffffffffffffffffffff021916908373ffffffffffffffffffffffffffffffffffffffff16021790555091602001919060010190610753565b5b5090506107b991906107bd565b5090565b5b808211156107d65760008160009055506001016107be565b5090565b600080fd5b600073ffffffffffffffffffffffffffffffffffffffff82169050919050565b600061080a826107df565b9050919050565b61081a816107ff565b811461082557600080fd5b50565b60008135905061083781610811565b92915050565b600060208284031215610853576108526107da565b5b600061086184828501610828565b91505092915050565b6000819050919050565b61087d8161086a565b82525050565b60006020820190506108986000830184610874565b92915050565b6108a78161086a565b81146108b257600080fd5b50565b6000813590506108c48161089e565b92915050565b6000602082840312156108e0576108df6107da565b5b60006108ee848285016108b5565b91505092915050565b610900816107ff565b82525050565b600060208201905061091b60008301846108f7565b92915050565b6000819050919050565b600061094661094161093c846107df565b610921565b6107df565b9050919050565b60006109588261092b565b9050919050565b600061096a8261094d565b9050919050565b61097a8161095f565b82525050565b60006020820190506109956000830184610971565b92915050565b7f4e487b7100000000000000000000000000000000000000000000000000000000600052603260045260246000fd5b7f4e487b7100000000000000000000000000000000000000000000000000000000600052601160045260246000fd5b6000610a048261086a565b91507fffffffffffffffffffffffffffffffffffffffffffffffffffffffffffffffff8203610a3657610a356109ca565b5b600182019050919050565b7f4e487b7100000000000000000000000000000000000000000000000000000000600052604160045260246000fd5b600081905092915050565b50565b6000610a8b600083610a70565b9150610a9682610a7b565b600082019050919050565b6000610aac82610a7e565b9150819050919050565b6000610ac18261086a565b9150610acc8361086a565b9250828202610ada8161086a565b91508282048414831517610af157610af06109ca565b5b5092915050565b7f4e487b7100000000000000000000000000000000000000000000000000000000600052601260045260246000fd5b6000610b328261086a565b9150610b3d8361086a565b925082610b4d57610b4c610af8565b5b828204905092915050565b600069ffffffffffffffffffff82169050919050565b610b7781610b58565b8114610b8257600080fd5b50565b600081519050610b9481610b6e565b92915050565b6000819050919050565b610bad81610b9a565b8114610bb857600080fd5b50565b600081519050610bca81610ba4565b92915050565b600081519050610bdf8161089e565b92915050565b600080600080600060a08688031215610c0157610c006107da565b5b6000610c0f88828901610b85565b9550506020610c2088828901610bbb565b9450506040610c3188828901610bd0565b9350506060610c4288828901610bd0565b9250506080610c5388828901610b85565b9150509295509295909350565b6000610c6b82610b9a565b9150610c7683610b9a565b9250828202610c8481610b9a565b91507f80000000000000000000000000000000000000000000000000000000000000008414600084121615610cbc57610cbb6109ca565b5b8282058414831517610cd157610cd06109ca565b5b509291505056fea2646970667358221220f3311ef72cebfa8801a79375a235f380f267a96dfaabc26af2a440bf5615ba8964736f6c63430008130033",
  "devdoc": {
    "author": "V",
    "details": "This implements price feeds as our library",
    "kind": "dev",
    "methods": {
      "constructor": {
        "params": {
          "priceFeedAddress": "Can be set by function calls to adapt to different chains"
        }
      }
    },
    "title": "A contract for crowd funding",
    "version": 1
  },
  "userdoc": {
    "kind": "user",
    "methods": {},
    "notice": "This contract is to demo a sample funding contract",
    "version": 1
  },
  "storageLayout": {
    "storage": [
      {
        "astId": 66,
        "contract": "contracts/FundMe.sol:FundMe",
        "label": "s_funders",
        "offset": 0,
        "slot": "0",
        "type": "t_array(t_address)dyn_storage"
      },
      {
        "astId": 70,
        "contract": "contracts/FundMe.sol:FundMe",
        "label": "s_addressToAmountFunded",
        "offset": 0,
        "slot": "1",
        "type": "t_mapping(t_address,t_uint256)"
      },
      {
        "astId": 75,
        "contract": "contracts/FundMe.sol:FundMe",
        "label": "s_priceFeed",
        "offset": 0,
        "slot": "2",
        "type": "t_contract(AggregatorV3Interface)45"
      }
    ],
    "types": {
      "t_address": {
        "encoding": "inplace",
        "label": "address",
        "numberOfBytes": "20"
      },
      "t_array(t_address)dyn_storage": {
        "base": "t_address",
        "encoding": "dynamic_array",
        "label": "address[]",
        "numberOfBytes": "32"
      },
      "t_contract(AggregatorV3Interface)45": {
        "encoding": "inplace",
        "label": "contract AggregatorV3Interface",
        "numberOfBytes": "20"
      },
      "t_mapping(t_address,t_uint256)": {
        "encoding": "mapping",
        "key": "t_address",
        "label": "mapping(address => uint256)",
        "numberOfBytes": "32",
        "value": "t_uint256"
      },
      "t_uint256": {
        "encoding": "inplace",
        "label": "uint256",
        "numberOfBytes": "32"
      }
    }
  }
}